{
  "_format": "hh-sol-artifact-1",
  "contractName": "PharmaDataRegistry",
  "sourceName": "contracts/PharmaDataRegistry.sol",
  "abi": [
    {
      "inputs": [],
      "stateMutability": "nonpayable",
      "type": "constructor"
    },
    {
      "anonymous": false,
      "inputs": [
        {
          "indexed": true,
          "internalType": "address",
          "name": "manufacturer",
          "type": "address"
        },
        {
          "indexed": false,
          "internalType": "string",
          "name": "batchNumber",
          "type": "string"
        }
      ],
      "name": "MedicineManufactured",
      "type": "event"
    },
    {
      "anonymous": false,
      "inputs": [
        {
          "indexed": true,
          "internalType": "address",
          "name": "seller",
          "type": "address"
        },
        {
          "indexed": true,
          "internalType": "address",
          "name": "buyer",
          "type": "address"
        },
        {
          "indexed": false,
          "internalType": "string",
          "name": "batchNumber",
          "type": "string"
        },
        {
          "indexed": false,
          "internalType": "uint256",
          "name": "quantity",
          "type": "uint256"
        }
      ],
      "name": "MedicineSold",
      "type": "event"
    },
    {
      "anonymous": false,
      "inputs": [
        {
          "indexed": true,
          "internalType": "address",
          "name": "from",
          "type": "address"
        },
        {
          "indexed": true,
          "internalType": "address",
          "name": "to",
          "type": "address"
        },
        {
          "indexed": false,
          "internalType": "string",
          "name": "batchNumber",
          "type": "string"
        }
      ],
      "name": "OwnershipTransferred",
      "type": "event"
    },
    {
      "anonymous": false,
      "inputs": [
        {
          "indexed": true,
          "internalType": "address",
          "name": "user",
          "type": "address"
        },
        {
          "indexed": false,
          "internalType": "enum PharmaDataRegistry.UserRole",
          "name": "newRole",
          "type": "uint8"
        }
      ],
      "name": "RoleUpdated",
      "type": "event"
    },
    {
      "inputs": [
        {
          "internalType": "address",
          "name": "user",
          "type": "address"
        },
        {
          "internalType": "enum PharmaDataRegistry.UserRole",
          "name": "role",
          "type": "uint8"
        }
      ],
      "name": "addUser",
      "outputs": [],
      "stateMutability": "nonpayable",
      "type": "function"
    },
    {
      "inputs": [
        {
          "internalType": "address",
          "name": "user",
          "type": "address"
        },
        {
          "internalType": "uint256",
          "name": "index",
          "type": "uint256"
        }
      ],
      "name": "getUserMedicine",
      "outputs": [
        {
          "internalType": "address",
          "name": "manufacturer",
          "type": "address"
        },
        {
          "internalType": "string",
          "name": "name",
          "type": "string"
        },
        {
          "internalType": "string",
          "name": "batchNumber",
          "type": "string"
        },
        {
          "internalType": "uint256",
          "name": "manufacturingDate",
          "type": "uint256"
        },
        {
          "internalType": "uint256",
          "name": "expiryDate",
          "type": "uint256"
        },
        {
          "internalType": "uint256",
          "name": "price",
          "type": "uint256"
        },
        {
          "internalType": "uint256",
          "name": "quantity",
          "type": "uint256"
        }
      ],
      "stateMutability": "view",
      "type": "function"
    },
    {
      "inputs": [
        {
          "internalType": "address",
          "name": "user",
          "type": "address"
        }
      ],
      "name": "getUserMedicineCount",
      "outputs": [
        {
          "internalType": "uint256",
          "name": "",
          "type": "uint256"
        }
      ],
      "stateMutability": "view",
      "type": "function"
    },
    {
      "inputs": [
        {
          "internalType": "address",
          "name": "user",
          "type": "address"
        }
      ],
      "name": "getUserRole",
      "outputs": [
        {
          "internalType": "enum PharmaDataRegistry.UserRole",
          "name": "",
          "type": "uint8"
        }
      ],
      "stateMutability": "view",
      "type": "function"
    },
    {
      "inputs": [
        {
          "internalType": "string",
          "name": "name",
          "type": "string"
        },
        {
          "internalType": "string",
          "name": "batchNumber",
          "type": "string"
        },
        {
          "internalType": "uint256",
          "name": "manufacturingDate",
          "type": "uint256"
        },
        {
          "internalType": "uint256",
          "name": "expiryDate",
          "type": "uint256"
        },
        {
          "internalType": "uint256",
          "name": "price",
          "type": "uint256"
        },
        {
          "internalType": "uint256",
          "name": "quantity",
          "type": "uint256"
        }
      ],
      "name": "manufactureMedicine",
      "outputs": [],
      "stateMutability": "nonpayable",
      "type": "function"
    },
    {
      "inputs": [],
      "name": "owner",
      "outputs": [
        {
          "internalType": "address",
          "name": "",
          "type": "address"
        }
      ],
      "stateMutability": "view",
      "type": "function"
    },
    {
      "inputs": [
        {
          "internalType": "address",
          "name": "buyer",
          "type": "address"
        },
        {
          "internalType": "string",
          "name": "batchNumber",
          "type": "string"
        },
        {
          "internalType": "uint256",
          "name": "quantity",
          "type": "uint256"
        }
      ],
      "name": "sellMedicine",
      "outputs": [],
      "stateMutability": "nonpayable",
      "type": "function"
    },
    {
      "inputs": [
        {
          "internalType": "address",
          "name": "newOwner",
          "type": "address"
        }
      ],
      "name": "transferOwnership",
      "outputs": [],
      "stateMutability": "nonpayable",
      "type": "function"
    },
    {
      "inputs": [
        {
          "internalType": "address",
          "name": "user",
          "type": "address"
        },
        {
          "internalType": "enum PharmaDataRegistry.UserRole",
          "name": "newRole",
          "type": "uint8"
        }
      ],
      "name": "updateUserRole",
      "outputs": [],
      "stateMutability": "nonpayable",
      "type": "function"
    }
  ],
  "bytecode": "0x608060405234801561001057600080fd5b5060008054336001600160a01b0319909116811782558152600160205260409020805460ff191690556111e9806100486000396000f3fe608060405234801561001057600080fd5b50600436106100935760003560e01c80639c3eead9116100665780639c3eead914610151578063a66ec0ca14610164578063c291fe621461018a578063ccda5b5b1461019d578063f2fde38b146101b057600080fd5b806327820851146100985780633f4259ee146100da5780635a271329146101115780638da5cb5b14610126575b600080fd5b6100c46100a6366004610c33565b6001600160a01b031660009081526001602052604090205460ff1690565b6040516100d19190610c6b565b60405180910390f35b6101036100e8366004610c33565b6001600160a01b031660009081526002602052604090205490565b6040519081526020016100d1565b61012461011f366004610d36565b6101c3565b005b600054610139906001600160a01b031681565b6040516001600160a01b0390911681526020016100d1565b61012461015f366004610dbd565b61034c565b610177610172366004610df8565b6103f8565b6040516100d19796959493929190610e68565b610124610198366004610dbd565b610642565b6101246101ab366004610ec5565b6106ca565b6101246101be366004610c33565b610afd565b3360009081526001602052604081205460ff1660028111156101e7576101e7610c55565b146102395760405162461bcd60e51b815260206004820152601f60248201527f4f6e6c79206d616e756661637475726572732063616e2075736520746869730060448201526064015b60405180910390fd5b336000818152600260209081526040808320815160e0810183529485528483018b81529185018a9052606085018990526080850188905260a0850187905260c0850186905280546001808201835591855292909320845160079093020180546001600160a01b0319166001600160a01b039093169290921782555190918201906102c39082610fa5565b50604082015160028201906102d89082610fa5565b50606082015181600301556080820151816004015560a0820151816005015560c082015181600601555050336001600160a01b03167f68b28fb7cce3fccce9fc90f00dac20c0561d90150161df8a4f4b46c50a4758788660405161033c9190611065565b60405180910390a2505050505050565b6000546001600160a01b031633146103765760405162461bcd60e51b815260040161023090611078565b6001600160a01b03821660009081526001602081905260409091208054839260ff19909116908360028111156103ae576103ae610c55565b0217905550816001600160a01b03167fc3f8f61911a1537261f77e2703626e158e299a98e341024ecaa26bbd1d884c64826040516103ec9190610c6b565b60405180910390a25050565b6001600160a01b03821660009081526002602052604081205460609081908390819081908190881061045c5760405162461bcd60e51b815260206004820152600d60248201526c092dcecc2d8d2c840d2dcc8caf609b1b6044820152606401610230565b6001600160a01b038916600090815260026020526040812080548a908110610486576104866110bd565b60009182526020918290206040805160e0810190915260079092020180546001600160a01b0316825260018101805492939192918401916104c690610f1c565b80601f01602080910402602001604051908101604052809291908181526020018280546104f290610f1c565b801561053f5780601f106105145761010080835404028352916020019161053f565b820191906000526020600020905b81548152906001019060200180831161052257829003601f168201915b5050505050815260200160028201805461055890610f1c565b80601f016020809104026020016040519081016040528092919081815260200182805461058490610f1c565b80156105d15780601f106105a6576101008083540402835291602001916105d1565b820191906000526020600020905b8154815290600101906020018083116105b457829003601f168201915b505050505081526020016003820154815260200160048201548152602001600582015481526020016006820154815250509050806000015181602001518260400151836060015184608001518560a001518660c0015197509750975097509750975097505092959891949750929550565b6000546001600160a01b0316331461066c5760405162461bcd60e51b815260040161023090611078565b6000546001600160a01b03908116908316036103765760405162461bcd60e51b815260206004820152601a60248201527f43616e6e6f74206368616e6765206f776e6572277320726f6c650000000000006044820152606401610230565b60013360009081526001602052604090205460ff1660028111156106f0576106f0610c55565b148061071f575060023360009081526001602052604090205460ff16600281111561071d5761071d610c55565b145b6107805760405162461bcd60e51b815260206004820152602c60248201527f4f6e6c79206469737472696275746f727320616e642072657461696c6572732060448201526b63616e20757365207468697360a01b6064820152608401610230565b3360009081526002602052604081209061079a8285610b9f565b905080196107df5760405162461bcd60e51b81526020600482015260126024820152711359591a58da5b99481b9bdd08199bdd5b9960721b6044820152606401610230565b828282815481106107f2576107f26110bd565b906000526020600020906007020160060154101561084a5760405162461bcd60e51b8152602060048201526015602482015274496e73756666696369656e74207175616e7469747960581b6044820152606401610230565b8282828154811061085d5761085d6110bd565b9060005260206000209060070201600601600082825461087d91906110e9565b9250508190555060026000866001600160a01b03166001600160a01b031681526020019081526020016000206040518060e001604052808484815481106108c6576108c66110bd565b6000918252602091829020600790910201546001600160a01b0316825285549101908590859081106108fa576108fa6110bd565b9060005260206000209060070201600101805461091690610f1c565b80601f016020809104026020016040519081016040528092919081815260200182805461094290610f1c565b801561098f5780601f106109645761010080835404028352916020019161098f565b820191906000526020600020905b81548152906001019060200180831161097257829003601f168201915b505050505081526020018681526020018484815481106109b1576109b16110bd565b90600052602060002090600702016003015481526020018484815481106109da576109da6110bd565b9060005260206000209060070201600401548152602001848481548110610a0357610a036110bd565b60009182526020808320600792830201600501548452928301889052845460018082018755958352918390208451929091020180546001600160a01b0319166001600160a01b03909216919091178155908201519192909190820190610a699082610fa5565b5060408201516002820190610a7e9082610fa5565b50606082015181600301556080820151816004015560a0820151816005015560c082015181600601555050846001600160a01b0316336001600160a01b03167f808c61d2fd584d689333ae5ffe8e884b158eaa449bb716f4a75a6015b0a195018686604051610aee9291906110fc565b60405180910390a35050505050565b6000546001600160a01b03163314610b275760405162461bcd60e51b815260040161023090611078565b6001600160a01b038116610b7d5760405162461bcd60e51b815260206004820152601960248201527f496e76616c6964206e6577206f776e65722061646472657373000000000000006044820152606401610230565b600080546001600160a01b0319166001600160a01b0392909216919091179055565b6000805b8354811215610c0a578280519060200120848281548110610bc657610bc66110bd565b9060005260206000209060070201600201604051610be4919061111e565b604051809103902003610bf8579050610c11565b80610c0281611194565b915050610ba3565b5060001990505b92915050565b80356001600160a01b0381168114610c2e57600080fd5b919050565b600060208284031215610c4557600080fd5b610c4e82610c17565b9392505050565b634e487b7160e01b600052602160045260246000fd5b6020810160038310610c8d57634e487b7160e01b600052602160045260246000fd5b91905290565b634e487b7160e01b600052604160045260246000fd5b600082601f830112610cba57600080fd5b813567ffffffffffffffff80821115610cd557610cd5610c93565b604051601f8301601f19908116603f01168101908282118183101715610cfd57610cfd610c93565b81604052838152866020858801011115610d1657600080fd5b836020870160208301376000602085830101528094505050505092915050565b60008060008060008060c08789031215610d4f57600080fd5b863567ffffffffffffffff80821115610d6757600080fd5b610d738a838b01610ca9565b97506020890135915080821115610d8957600080fd5b50610d9689828a01610ca9565b96999698505050506040850135946060810135946080820135945060a09091013592509050565b60008060408385031215610dd057600080fd5b610dd983610c17565b9150602083013560038110610ded57600080fd5b809150509250929050565b60008060408385031215610e0b57600080fd5b610e1483610c17565b946020939093013593505050565b6000815180845260005b81811015610e4857602081850181015186830182015201610e2c565b506000602082860101526020601f19601f83011685010191505092915050565b6001600160a01b038816815260e060208201819052600090610e8c90830189610e22565b8281036040840152610e9e8189610e22565b9150508560608301528460808301528360a08301528260c083015298975050505050505050565b600080600060608486031215610eda57600080fd5b610ee384610c17565b9250602084013567ffffffffffffffff811115610eff57600080fd5b610f0b86828701610ca9565b925050604084013590509250925092565b600181811c90821680610f3057607f821691505b602082108103610f5057634e487b7160e01b600052602260045260246000fd5b50919050565b601f821115610fa057600081815260208120601f850160051c81016020861015610f7d5750805b601f850160051c820191505b81811015610f9c57828155600101610f89565b5050505b505050565b815167ffffffffffffffff811115610fbf57610fbf610c93565b610fd381610fcd8454610f1c565b84610f56565b602080601f8311600181146110085760008415610ff05750858301515b600019600386901b1c1916600185901b178555610f9c565b600085815260208120601f198616915b8281101561103757888601518255948401946001909101908401611018565b50858210156110555787850151600019600388901b60f8161c191681555b5050505050600190811b01905550565b602081526000610c4e6020830184610e22565b60208082526025908201527f4f6e6c7920746865206f776e65722063616e2063616c6c20746869732066756e60408201526431ba34b7b760d91b606082015260800190565b634e487b7160e01b600052603260045260246000fd5b634e487b7160e01b600052601160045260246000fd5b81810381811115610c1157610c116110d3565b60408152600061110f6040830185610e22565b90508260208301529392505050565b600080835461112c81610f1c565b60018281168015611144576001811461115957611188565b60ff1984168752821515830287019450611188565b8760005260208060002060005b8581101561117f5781548a820152908401908201611166565b50505082870194505b50929695505050505050565b60006001600160ff1b0182016111ac576111ac6110d3565b506001019056fea2646970667358221220e927043e1ee9b1410ab208c094c72db410018050f19e55b042a91502f74b8afc64736f6c63430008110033",
  "linkReferences": {},
  "deployedLinkReferences": {}
}